{
  "_format": "hh-sol-artifact-1",
  "contractName": "SaiyaNFT",
  "sourceName": "contracts/SaiyaNFT.sol",
  "abi": [
    {
      "anonymous": false,
      "inputs": [
        {
          "indexed": true,
          "internalType": "address",
          "name": "owner",
          "type": "address"
        },
        {
          "indexed": true,
          "internalType": "address",
          "name": "approved",
          "type": "address"
        },
        {
          "indexed": true,
          "internalType": "uint256",
          "name": "tokenId",
          "type": "uint256"
        }
      ],
      "name": "Approval",
      "type": "event"
    },
    {
      "anonymous": false,
      "inputs": [
        {
          "indexed": true,
          "internalType": "address",
          "name": "owner",
          "type": "address"
        },
        {
          "indexed": true,
          "internalType": "address",
          "name": "operator",
          "type": "address"
        },
        {
          "indexed": false,
          "internalType": "bool",
          "name": "approved",
          "type": "bool"
        }
      ],
      "name": "ApprovalForAll",
      "type": "event"
    },
    {
      "anonymous": false,
      "inputs": [
        {
          "indexed": true,
          "internalType": "address",
          "name": "previousOwner",
          "type": "address"
        },
        {
          "indexed": true,
          "internalType": "address",
          "name": "newOwner",
          "type": "address"
        }
      ],
      "name": "OwnershipTransferred",
      "type": "event"
    },
    {
      "anonymous": false,
      "inputs": [
        {
          "indexed": true,
          "internalType": "address",
          "name": "from",
          "type": "address"
        },
        {
          "indexed": true,
          "internalType": "address",
          "name": "to",
          "type": "address"
        },
        {
          "indexed": true,
          "internalType": "uint256",
          "name": "tokenId",
          "type": "uint256"
        }
      ],
      "name": "Transfer",
      "type": "event"
    },
    {
      "inputs": [
        {
          "internalType": "address",
          "name": "to",
          "type": "address"
        },
        {
          "internalType": "uint256",
          "name": "tokenId",
          "type": "uint256"
        }
      ],
      "name": "approve",
      "outputs": [],
      "stateMutability": "nonpayable",
      "type": "function"
    },
    {
      "inputs": [
        {
          "internalType": "address",
          "name": "owner",
          "type": "address"
        }
      ],
      "name": "balanceOf",
      "outputs": [
        {
          "internalType": "uint256",
          "name": "",
          "type": "uint256"
        }
      ],
      "stateMutability": "view",
      "type": "function"
    },
    {
      "inputs": [
        {
          "internalType": "uint256",
          "name": "tokenId",
          "type": "uint256"
        }
      ],
      "name": "getApproved",
      "outputs": [
        {
          "internalType": "address",
          "name": "",
          "type": "address"
        }
      ],
      "stateMutability": "view",
      "type": "function"
    },
    {
      "inputs": [
        {
          "internalType": "address",
          "name": "owner",
          "type": "address"
        },
        {
          "internalType": "address",
          "name": "operator",
          "type": "address"
        }
      ],
      "name": "isApprovedForAll",
      "outputs": [
        {
          "internalType": "bool",
          "name": "",
          "type": "bool"
        }
      ],
      "stateMutability": "view",
      "type": "function"
    },
    {
      "inputs": [
        {
          "internalType": "address",
          "name": "to",
          "type": "address"
        },
        {
          "internalType": "uint256",
          "name": "tokenId",
          "type": "uint256"
        }
      ],
      "name": "mint",
      "outputs": [],
      "stateMutability": "nonpayable",
      "type": "function"
    },
    {
      "inputs": [],
      "name": "name",
      "outputs": [
        {
          "internalType": "string",
          "name": "",
          "type": "string"
        }
      ],
      "stateMutability": "view",
      "type": "function"
    },
    {
      "inputs": [],
      "name": "owner",
      "outputs": [
        {
          "internalType": "address",
          "name": "",
          "type": "address"
        }
      ],
      "stateMutability": "view",
      "type": "function"
    },
    {
      "inputs": [
        {
          "internalType": "uint256",
          "name": "tokenId",
          "type": "uint256"
        }
      ],
      "name": "ownerOf",
      "outputs": [
        {
          "internalType": "address",
          "name": "",
          "type": "address"
        }
      ],
      "stateMutability": "view",
      "type": "function"
    },
    {
      "inputs": [],
      "name": "renounceOwnership",
      "outputs": [],
      "stateMutability": "nonpayable",
      "type": "function"
    },
    {
      "inputs": [
        {
          "internalType": "uint256",
          "name": "_tokenId",
          "type": "uint256"
        },
        {
          "internalType": "uint256",
          "name": "_salePrice",
          "type": "uint256"
        }
      ],
      "name": "royaltyInfo",
      "outputs": [
        {
          "internalType": "address",
          "name": "",
          "type": "address"
        },
        {
          "internalType": "uint256",
          "name": "",
          "type": "uint256"
        }
      ],
      "stateMutability": "view",
      "type": "function"
    },
    {
      "inputs": [
        {
          "internalType": "address",
          "name": "from",
          "type": "address"
        },
        {
          "internalType": "address",
          "name": "to",
          "type": "address"
        },
        {
          "internalType": "uint256",
          "name": "tokenId",
          "type": "uint256"
        }
      ],
      "name": "safeTransferFrom",
      "outputs": [],
      "stateMutability": "nonpayable",
      "type": "function"
    },
    {
      "inputs": [
        {
          "internalType": "address",
          "name": "from",
          "type": "address"
        },
        {
          "internalType": "address",
          "name": "to",
          "type": "address"
        },
        {
          "internalType": "uint256",
          "name": "tokenId",
          "type": "uint256"
        },
        {
          "internalType": "bytes",
          "name": "data",
          "type": "bytes"
        }
      ],
      "name": "safeTransferFrom",
      "outputs": [],
      "stateMutability": "nonpayable",
      "type": "function"
    },
    {
      "inputs": [
        {
          "internalType": "address",
          "name": "operator",
          "type": "address"
        },
        {
          "internalType": "bool",
          "name": "approved",
          "type": "bool"
        }
      ],
      "name": "setApprovalForAll",
      "outputs": [],
      "stateMutability": "nonpayable",
      "type": "function"
    },
    {
      "inputs": [
        {
          "internalType": "address",
          "name": "receiver",
          "type": "address"
        },
        {
          "internalType": "uint96",
          "name": "feeNumerator",
          "type": "uint96"
        }
      ],
      "name": "setDefaultRoyalty",
      "outputs": [],
      "stateMutability": "nonpayable",
      "type": "function"
    },
    {
      "inputs": [
        {
          "internalType": "uint256",
          "name": "tokenId",
          "type": "uint256"
        },
        {
          "internalType": "address",
          "name": "receiver",
          "type": "address"
        },
        {
          "internalType": "uint96",
          "name": "feeNumerator",
          "type": "uint96"
        }
      ],
      "name": "setTokenRoyalty",
      "outputs": [],
      "stateMutability": "nonpayable",
      "type": "function"
    },
    {
      "inputs": [
        {
          "internalType": "bytes4",
          "name": "interfaceId",
          "type": "bytes4"
        }
      ],
      "name": "supportsInterface",
      "outputs": [
        {
          "internalType": "bool",
          "name": "",
          "type": "bool"
        }
      ],
      "stateMutability": "view",
      "type": "function"
    },
    {
      "inputs": [],
      "name": "symbol",
      "outputs": [
        {
          "internalType": "string",
          "name": "",
          "type": "string"
        }
      ],
      "stateMutability": "view",
      "type": "function"
    },
    {
      "inputs": [
        {
          "internalType": "uint256",
          "name": "tokenId",
          "type": "uint256"
        }
      ],
      "name": "tokenURI",
      "outputs": [
        {
          "internalType": "string",
          "name": "",
          "type": "string"
        }
      ],
      "stateMutability": "view",
      "type": "function"
    },
    {
      "inputs": [
        {
          "internalType": "address",
          "name": "from",
          "type": "address"
        },
        {
          "internalType": "address",
          "name": "to",
          "type": "address"
        },
        {
          "internalType": "uint256",
          "name": "tokenId",
          "type": "uint256"
        }
      ],
      "name": "transferFrom",
      "outputs": [],
      "stateMutability": "nonpayable",
      "type": "function"
    },
    {
      "inputs": [
        {
          "internalType": "address",
          "name": "newOwner",
          "type": "address"
        }
      ],
      "name": "transferOwnership",
      "outputs": [],
      "stateMutability": "nonpayable",
      "type": "function"
    }
  ],
  "bytecode": "0x60806040523480156200001157600080fd5b506040518060400160405280600881526020017f53616979614e46540000000000000000000000000000000000000000000000008152506040518060400160405280600681526020017f5341494e4654000000000000000000000000000000000000000000000000000081525081600090816200008f919062000412565b508060019081620000a1919062000412565b505050620000c4620000b8620000ca60201b60201c565b620000d260201b60201c565b620004f9565b600033905090565b6000600860009054906101000a900473ffffffffffffffffffffffffffffffffffffffff16905081600860006101000a81548173ffffffffffffffffffffffffffffffffffffffff021916908373ffffffffffffffffffffffffffffffffffffffff1602179055508173ffffffffffffffffffffffffffffffffffffffff168173ffffffffffffffffffffffffffffffffffffffff167f8be0079c531659141344cd1fd0a4f28419497f9722a3daafe3b4186f6b6457e060405160405180910390a35050565b600081519050919050565b7f4e487b7100000000000000000000000000000000000000000000000000000000600052604160045260246000fd5b7f4e487b7100000000000000000000000000000000000000000000000000000000600052602260045260246000fd5b600060028204905060018216806200021a57607f821691505b60208210810362000230576200022f620001d2565b5b50919050565b60008190508160005260206000209050919050565b60006020601f8301049050919050565b600082821b905092915050565b6000600883026200029a7fffffffffffffffffffffffffffffffffffffffffffffffffffffffffffffffff826200025b565b620002a686836200025b565b95508019841693508086168417925050509392505050565b6000819050919050565b6000819050919050565b6000620002f3620002ed620002e784620002be565b620002c8565b620002be565b9050919050565b6000819050919050565b6200030f83620002d2565b620003276200031e82620002fa565b84845462000268565b825550505050565b600090565b6200033e6200032f565b6200034b81848462000304565b505050565b5b8181101562000373576200036760008262000334565b60018101905062000351565b5050565b601f821115620003c2576200038c8162000236565b62000397846200024b565b81016020851015620003a7578190505b620003bf620003b6856200024b565b83018262000350565b50505b505050565b600082821c905092915050565b6000620003e760001984600802620003c7565b1980831691505092915050565b6000620004028383620003d4565b9150826002028217905092915050565b6200041d8262000198565b67ffffffffffffffff811115620004395762000438620001a3565b5b62000445825462000201565b6200045282828562000377565b600060209050601f8311600181146200048a576000841562000475578287015190505b620004818582620003f4565b865550620004f1565b601f1984166200049a8662000236565b60005b82811015620004c4578489015182556001820191506020850194506020810190506200049d565b86831015620004e45784890151620004e0601f891682620003d4565b8355505b6001600288020188555050505b505050505050565b61320380620005096000396000f3fe608060405234801561001057600080fd5b506004361061012c5760003560e01c80636352211e116100ad578063a22cb46511610071578063a22cb4651461032e578063b88d4fde1461034a578063c87b56dd14610366578063e985e9c514610396578063f2fde38b146103c65761012c565b80636352211e1461028857806370a08231146102b8578063715018a6146102e85780638da5cb5b146102f257806395d89b41146103105761012c565b806323b872dd116100f457806323b872dd146101e75780632a55205a1461020357806340c10f191461023457806342842e0e146102505780635944c7531461026c5761012c565b806301ffc9a71461013157806304634d8d1461016157806306fdde031461017d578063081812fc1461019b578063095ea7b3146101cb575b600080fd5b61014b600480360381019061014691906120b5565b6103e2565b60405161015891906120fd565b60405180910390f35b61017b600480360381019061017691906121ba565b610404565b005b610185610412565b604051610192919061228a565b60405180910390f35b6101b560048036038101906101b091906122e2565b6104a4565b6040516101c2919061231e565b60405180910390f35b6101e560048036038101906101e09190612339565b6104ea565b005b61020160048036038101906101fc9190612379565b610601565b005b61021d600480360381019061021891906123cc565b610661565b60405161022b92919061241b565b60405180910390f35b61024e60048036038101906102499190612339565b61084b565b005b61026a60048036038101906102659190612379565b610861565b005b61028660048036038101906102819190612444565b610881565b005b6102a2600480360381019061029d91906122e2565b610891565b6040516102af919061231e565b60405180910390f35b6102d260048036038101906102cd9190612497565b610917565b6040516102df91906124c4565b60405180910390f35b6102f06109ce565b005b6102fa6109e2565b604051610307919061231e565b60405180910390f35b610318610a0c565b604051610325919061228a565b60405180910390f35b6103486004803603810190610343919061250b565b610a9e565b005b610364600480360381019061035f9190612680565b610ab4565b005b610380600480360381019061037b91906122e2565b610b16565b60405161038d919061228a565b60405180910390f35b6103b060048036038101906103ab9190612703565b610b7e565b6040516103bd91906120fd565b60405180910390f35b6103e060048036038101906103db9190612497565b610c12565b005b60006103ed82610c95565b806103fd57506103fc82610d77565b5b9050919050565b61040e8282610df1565b5050565b60606000805461042190612772565b80601f016020809104026020016040519081016040528092919081815260200182805461044d90612772565b801561049a5780601f1061046f5761010080835404028352916020019161049a565b820191906000526020600020905b81548152906001019060200180831161047d57829003601f168201915b5050505050905090565b60006104af82610f86565b6004600083815260200190815260200160002060009054906101000a900473ffffffffffffffffffffffffffffffffffffffff169050919050565b60006104f582610891565b90508073ffffffffffffffffffffffffffffffffffffffff168373ffffffffffffffffffffffffffffffffffffffff1603610565576040517f08c379a000000000000000000000000000000000000000000000000000000000815260040161055c90612815565b60405180910390fd5b8073ffffffffffffffffffffffffffffffffffffffff16610584610fd1565b73ffffffffffffffffffffffffffffffffffffffff1614806105b357506105b2816105ad610fd1565b610b7e565b5b6105f2576040517f08c379a00000000000000000000000000000000000000000000000000000000081526004016105e9906128a7565b60405180910390fd5b6105fc8383610fd9565b505050565b61061261060c610fd1565b82611092565b610651576040517f08c379a000000000000000000000000000000000000000000000000000000000815260040161064890612939565b60405180910390fd5b61065c838383611127565b505050565b6000806000600760008681526020019081526020016000206040518060400160405290816000820160009054906101000a900473ffffffffffffffffffffffffffffffffffffffff1673ffffffffffffffffffffffffffffffffffffffff1673ffffffffffffffffffffffffffffffffffffffff1681526020016000820160149054906101000a90046bffffffffffffffffffffffff166bffffffffffffffffffffffff166bffffffffffffffffffffffff16815250509050600073ffffffffffffffffffffffffffffffffffffffff16816000015173ffffffffffffffffffffffffffffffffffffffff16036107f65760066040518060400160405290816000820160009054906101000a900473ffffffffffffffffffffffffffffffffffffffff1673ffffffffffffffffffffffffffffffffffffffff1673ffffffffffffffffffffffffffffffffffffffff1681526020016000820160149054906101000a90046bffffffffffffffffffffffff166bffffffffffffffffffffffff166bffffffffffffffffffffffff168152505090505b6000610800611420565b6bffffffffffffffffffffffff1682602001516bffffffffffffffffffffffff168661082c9190612988565b61083691906129f9565b90508160000151819350935050509250929050565b61085361142a565b61085d82826114a8565b5050565b61087c83838360405180602001604052806000815250610ab4565b505050565b61088c8383836114c6565b505050565b60008061089d8361166d565b9050600073ffffffffffffffffffffffffffffffffffffffff168173ffffffffffffffffffffffffffffffffffffffff160361090e576040517f08c379a000000000000000000000000000000000000000000000000000000000815260040161090590612a76565b60405180910390fd5b80915050919050565b60008073ffffffffffffffffffffffffffffffffffffffff168273ffffffffffffffffffffffffffffffffffffffff1603610987576040517f08c379a000000000000000000000000000000000000000000000000000000000815260040161097e90612b08565b60405180910390fd5b600360008373ffffffffffffffffffffffffffffffffffffffff1673ffffffffffffffffffffffffffffffffffffffff168152602001908152602001600020549050919050565b6109d661142a565b6109e060006116aa565b565b6000600860009054906101000a900473ffffffffffffffffffffffffffffffffffffffff16905090565b606060018054610a1b90612772565b80601f0160208091040260200160405190810160405280929190818152602001828054610a4790612772565b8015610a945780601f10610a6957610100808354040283529160200191610a94565b820191906000526020600020905b815481529060010190602001808311610a7757829003601f168201915b5050505050905090565b610ab0610aa9610fd1565b8383611770565b5050565b610ac5610abf610fd1565b83611092565b610b04576040517f08c379a0000000000000000000000000000000000000000000000000000000008152600401610afb90612939565b60405180910390fd5b610b10848484846118dc565b50505050565b6060610b2182610f86565b6000610b2b611938565b90506000815111610b4b5760405180602001604052806000815250610b76565b80610b558461194f565b604051602001610b66929190612b64565b6040516020818303038152906040525b915050919050565b6000600560008473ffffffffffffffffffffffffffffffffffffffff1673ffffffffffffffffffffffffffffffffffffffff16815260200190815260200160002060008373ffffffffffffffffffffffffffffffffffffffff1673ffffffffffffffffffffffffffffffffffffffff16815260200190815260200160002060009054906101000a900460ff16905092915050565b610c1a61142a565b600073ffffffffffffffffffffffffffffffffffffffff168173ffffffffffffffffffffffffffffffffffffffff1603610c89576040517f08c379a0000000000000000000000000000000000000000000000000000000008152600401610c8090612bfa565b60405180910390fd5b610c92816116aa565b50565b60007f80ac58cd000000000000000000000000000000000000000000000000000000007bffffffffffffffffffffffffffffffffffffffffffffffffffffffff1916827bffffffffffffffffffffffffffffffffffffffffffffffffffffffff19161480610d6057507f5b5e139f000000000000000000000000000000000000000000000000000000007bffffffffffffffffffffffffffffffffffffffffffffffffffffffff1916827bffffffffffffffffffffffffffffffffffffffffffffffffffffffff1916145b80610d705750610d6f82611a1d565b5b9050919050565b60007f2a55205a000000000000000000000000000000000000000000000000000000007bffffffffffffffffffffffffffffffffffffffffffffffffffffffff1916827bffffffffffffffffffffffffffffffffffffffffffffffffffffffff19161480610dea5750610de982610c95565b5b9050919050565b610df9611420565b6bffffffffffffffffffffffff16816bffffffffffffffffffffffff161115610e57576040517f08c379a0000000000000000000000000000000000000000000000000000000008152600401610e4e90612c8c565b60405180910390fd5b600073ffffffffffffffffffffffffffffffffffffffff168273ffffffffffffffffffffffffffffffffffffffff1603610ec6576040517f08c379a0000000000000000000000000000000000000000000000000000000008152600401610ebd90612cf8565b60405180910390fd5b60405180604001604052808373ffffffffffffffffffffffffffffffffffffffff168152602001826bffffffffffffffffffffffff16815250600660008201518160000160006101000a81548173ffffffffffffffffffffffffffffffffffffffff021916908373ffffffffffffffffffffffffffffffffffffffff16021790555060208201518160000160146101000a8154816bffffffffffffffffffffffff02191690836bffffffffffffffffffffffff1602179055509050505050565b610f8f81611a87565b610fce576040517f08c379a0000000000000000000000000000000000000000000000000000000008152600401610fc590612a76565b60405180910390fd5b50565b600033905090565b816004600083815260200190815260200160002060006101000a81548173ffffffffffffffffffffffffffffffffffffffff021916908373ffffffffffffffffffffffffffffffffffffffff160217905550808273ffffffffffffffffffffffffffffffffffffffff1661104c83610891565b73ffffffffffffffffffffffffffffffffffffffff167f8c5be1e5ebec7d5bd14f71427d1e84f3dd0314c0f7b2291e5b200ac8c7c3b92560405160405180910390a45050565b60008061109e83610891565b90508073ffffffffffffffffffffffffffffffffffffffff168473ffffffffffffffffffffffffffffffffffffffff1614806110e057506110df8185610b7e565b5b8061111e57508373ffffffffffffffffffffffffffffffffffffffff16611106846104a4565b73ffffffffffffffffffffffffffffffffffffffff16145b91505092915050565b8273ffffffffffffffffffffffffffffffffffffffff1661114782610891565b73ffffffffffffffffffffffffffffffffffffffff161461119d576040517f08c379a000000000000000000000000000000000000000000000000000000000815260040161119490612d8a565b60405180910390fd5b600073ffffffffffffffffffffffffffffffffffffffff168273ffffffffffffffffffffffffffffffffffffffff160361120c576040517f08c379a000000000000000000000000000000000000000000000000000000000815260040161120390612e1c565b60405180910390fd5b6112198383836001611ac8565b8273ffffffffffffffffffffffffffffffffffffffff1661123982610891565b73ffffffffffffffffffffffffffffffffffffffff161461128f576040517f08c379a000000000000000000000000000000000000000000000000000000000815260040161128690612d8a565b60405180910390fd5b6004600082815260200190815260200160002060006101000a81549073ffffffffffffffffffffffffffffffffffffffff02191690556001600360008573ffffffffffffffffffffffffffffffffffffffff1673ffffffffffffffffffffffffffffffffffffffff168152602001908152602001600020600082825403925050819055506001600360008473ffffffffffffffffffffffffffffffffffffffff1673ffffffffffffffffffffffffffffffffffffffff16815260200190815260200160002060008282540192505081905550816002600083815260200190815260200160002060006101000a81548173ffffffffffffffffffffffffffffffffffffffff021916908373ffffffffffffffffffffffffffffffffffffffff160217905550808273ffffffffffffffffffffffffffffffffffffffff168473ffffffffffffffffffffffffffffffffffffffff167fddf252ad1be2c89b69c2b068fc378daa952ba7f163c4a11628f55a4df523b3ef60405160405180910390a461141b8383836001611ace565b505050565b6000612710905090565b611432610fd1565b73ffffffffffffffffffffffffffffffffffffffff166114506109e2565b73ffffffffffffffffffffffffffffffffffffffff16146114a6576040517f08c379a000000000000000000000000000000000000000000000000000000000815260040161149d90612e88565b60405180910390fd5b565b6114c2828260405180602001604052806000815250611ad4565b5050565b6114ce611420565b6bffffffffffffffffffffffff16816bffffffffffffffffffffffff16111561152c576040517f08c379a000000000000000000000000000000000000000000000000000000000815260040161152390612c8c565b60405180910390fd5b600073ffffffffffffffffffffffffffffffffffffffff168273ffffffffffffffffffffffffffffffffffffffff160361159b576040517f08c379a000000000000000000000000000000000000000000000000000000000815260040161159290612ef4565b60405180910390fd5b60405180604001604052808373ffffffffffffffffffffffffffffffffffffffff168152602001826bffffffffffffffffffffffff168152506007600085815260200190815260200160002060008201518160000160006101000a81548173ffffffffffffffffffffffffffffffffffffffff021916908373ffffffffffffffffffffffffffffffffffffffff16021790555060208201518160000160146101000a8154816bffffffffffffffffffffffff02191690836bffffffffffffffffffffffff160217905550905050505050565b60006002600083815260200190815260200160002060009054906101000a900473ffffffffffffffffffffffffffffffffffffffff169050919050565b6000600860009054906101000a900473ffffffffffffffffffffffffffffffffffffffff16905081600860006101000a81548173ffffffffffffffffffffffffffffffffffffffff021916908373ffffffffffffffffffffffffffffffffffffffff1602179055508173ffffffffffffffffffffffffffffffffffffffff168173ffffffffffffffffffffffffffffffffffffffff167f8be0079c531659141344cd1fd0a4f28419497f9722a3daafe3b4186f6b6457e060405160405180910390a35050565b8173ffffffffffffffffffffffffffffffffffffffff168373ffffffffffffffffffffffffffffffffffffffff16036117de576040517f08c379a00000000000000000000000000000000000000000000000000000000081526004016117d590612f60565b60405180910390fd5b80600560008573ffffffffffffffffffffffffffffffffffffffff1673ffffffffffffffffffffffffffffffffffffffff16815260200190815260200160002060008473ffffffffffffffffffffffffffffffffffffffff1673ffffffffffffffffffffffffffffffffffffffff16815260200190815260200160002060006101000a81548160ff0219169083151502179055508173ffffffffffffffffffffffffffffffffffffffff168373ffffffffffffffffffffffffffffffffffffffff167f17307eab39ab6107e8899845ad3d59bd9653f200f220920489ca2b5937696c31836040516118cf91906120fd565b60405180910390a3505050565b6118e7848484611127565b6118f384848484611b2f565b611932576040517f08c379a000000000000000000000000000000000000000000000000000000000815260040161192990612ff2565b60405180910390fd5b50505050565b606060405180602001604052806000815250905090565b60606000600161195e84611cb6565b01905060008167ffffffffffffffff81111561197d5761197c612555565b5b6040519080825280601f01601f1916602001820160405280156119af5781602001600182028036833780820191505090505b509050600082602001820190505b600115611a12578080600190039150507f3031323334353637383961626364656600000000000000000000000000000000600a86061a8153600a8581611a0657611a056129ca565b5b049450600085036119bd575b819350505050919050565b60007f01ffc9a7000000000000000000000000000000000000000000000000000000007bffffffffffffffffffffffffffffffffffffffffffffffffffffffff1916827bffffffffffffffffffffffffffffffffffffffffffffffffffffffff1916149050919050565b60008073ffffffffffffffffffffffffffffffffffffffff16611aa98361166d565b73ffffffffffffffffffffffffffffffffffffffff1614159050919050565b50505050565b50505050565b611ade8383611e09565b611aeb6000848484611b2f565b611b2a576040517f08c379a0000000000000000000000000000000000000000000000000000000008152600401611b2190612ff2565b60405180910390fd5b505050565b6000611b508473ffffffffffffffffffffffffffffffffffffffff16612026565b15611ca9578373ffffffffffffffffffffffffffffffffffffffff1663150b7a02611b79610fd1565b8786866040518563ffffffff1660e01b8152600401611b9b9493929190613067565b6020604051808303816000875af1925050508015611bd757506040513d601f19601f82011682018060405250810190611bd491906130c8565b60015b611c59573d8060008114611c07576040519150601f19603f3d011682016040523d82523d6000602084013e611c0c565b606091505b506000815103611c51576040517f08c379a0000000000000000000000000000000000000000000000000000000008152600401611c4890612ff2565b60405180910390fd5b805181602001fd5b63150b7a0260e01b7bffffffffffffffffffffffffffffffffffffffffffffffffffffffff1916817bffffffffffffffffffffffffffffffffffffffffffffffffffffffff191614915050611cae565b600190505b949350505050565b600080600090507a184f03e93ff9f4daa797ed6e38ed64bf6a1f0100000000000000008310611d14577a184f03e93ff9f4daa797ed6e38ed64bf6a1f0100000000000000008381611d0a57611d096129ca565b5b0492506040810190505b6d04ee2d6d415b85acef81000000008310611d51576d04ee2d6d415b85acef81000000008381611d4757611d466129ca565b5b0492506020810190505b662386f26fc100008310611d8057662386f26fc100008381611d7657611d756129ca565b5b0492506010810190505b6305f5e1008310611da9576305f5e1008381611d9f57611d9e6129ca565b5b0492506008810190505b6127108310611dce576127108381611dc457611dc36129ca565b5b0492506004810190505b60648310611df15760648381611de757611de66129ca565b5b0492506002810190505b600a8310611e00576001810190505b80915050919050565b600073ffffffffffffffffffffffffffffffffffffffff168273ffffffffffffffffffffffffffffffffffffffff1603611e78576040517f08c379a0000000000000000000000000000000000000000000000000000000008152600401611e6f90613141565b60405180910390fd5b611e8181611a87565b15611ec1576040517f08c379a0000000000000000000000000000000000000000000000000000000008152600401611eb8906131ad565b60405180910390fd5b611ecf600083836001611ac8565b611ed881611a87565b15611f18576040517f08c379a0000000000000000000000000000000000000000000000000000000008152600401611f0f906131ad565b60405180910390fd5b6001600360008473ffffffffffffffffffffffffffffffffffffffff1673ffffffffffffffffffffffffffffffffffffffff16815260200190815260200160002060008282540192505081905550816002600083815260200190815260200160002060006101000a81548173ffffffffffffffffffffffffffffffffffffffff021916908373ffffffffffffffffffffffffffffffffffffffff160217905550808273ffffffffffffffffffffffffffffffffffffffff16600073ffffffffffffffffffffffffffffffffffffffff167fddf252ad1be2c89b69c2b068fc378daa952ba7f163c4a11628f55a4df523b3ef60405160405180910390a4612022600083836001611ace565b5050565b6000808273ffffffffffffffffffffffffffffffffffffffff163b119050919050565b6000604051905090565b600080fd5b600080fd5b60007fffffffff0000000000000000000000000000000000000000000000000000000082169050919050565b6120928161205d565b811461209d57600080fd5b50565b6000813590506120af81612089565b92915050565b6000602082840312156120cb576120ca612053565b5b60006120d9848285016120a0565b91505092915050565b60008115159050919050565b6120f7816120e2565b82525050565b600060208201905061211260008301846120ee565b92915050565b600073ffffffffffffffffffffffffffffffffffffffff82169050919050565b600061214382612118565b9050919050565b61215381612138565b811461215e57600080fd5b50565b6000813590506121708161214a565b92915050565b60006bffffffffffffffffffffffff82169050919050565b61219781612176565b81146121a257600080fd5b50565b6000813590506121b48161218e565b92915050565b600080604083850312156121d1576121d0612053565b5b60006121df85828601612161565b92505060206121f0858286016121a5565b9150509250929050565b600081519050919050565b600082825260208201905092915050565b60005b83811015612234578082015181840152602081019050612219565b60008484015250505050565b6000601f19601f8301169050919050565b600061225c826121fa565b6122668185612205565b9350612276818560208601612216565b61227f81612240565b840191505092915050565b600060208201905081810360008301526122a48184612251565b905092915050565b6000819050919050565b6122bf816122ac565b81146122ca57600080fd5b50565b6000813590506122dc816122b6565b92915050565b6000602082840312156122f8576122f7612053565b5b6000612306848285016122cd565b91505092915050565b61231881612138565b82525050565b6000602082019050612333600083018461230f565b92915050565b600080604083850312156123505761234f612053565b5b600061235e85828601612161565b925050602061236f858286016122cd565b9150509250929050565b60008060006060848603121561239257612391612053565b5b60006123a086828701612161565b93505060206123b186828701612161565b92505060406123c2868287016122cd565b9150509250925092565b600080604083850312156123e3576123e2612053565b5b60006123f1858286016122cd565b9250506020612402858286016122cd565b9150509250929050565b612415816122ac565b82525050565b6000604082019050612430600083018561230f565b61243d602083018461240c565b9392505050565b60008060006060848603121561245d5761245c612053565b5b600061246b868287016122cd565b935050602061247c86828701612161565b925050604061248d868287016121a5565b9150509250925092565b6000602082840312156124ad576124ac612053565b5b60006124bb84828501612161565b91505092915050565b60006020820190506124d9600083018461240c565b92915050565b6124e8816120e2565b81146124f357600080fd5b50565b600081359050612505816124df565b92915050565b6000806040838503121561252257612521612053565b5b600061253085828601612161565b9250506020612541858286016124f6565b9150509250929050565b600080fd5b600080fd5b7f4e487b7100000000000000000000000000000000000000000000000000000000600052604160045260246000fd5b61258d82612240565b810181811067ffffffffffffffff821117156125ac576125ab612555565b5b80604052505050565b60006125bf612049565b90506125cb8282612584565b919050565b600067ffffffffffffffff8211156125eb576125ea612555565b5b6125f482612240565b9050602081019050919050565b82818337600083830152505050565b600061262361261e846125d0565b6125b5565b90508281526020810184848401111561263f5761263e612550565b5b61264a848285612601565b509392505050565b600082601f8301126126675761266661254b565b5b8135612677848260208601612610565b91505092915050565b6000806000806080858703121561269a57612699612053565b5b60006126a887828801612161565b94505060206126b987828801612161565b93505060406126ca878288016122cd565b925050606085013567ffffffffffffffff8111156126eb576126ea612058565b5b6126f787828801612652565b91505092959194509250565b6000806040838503121561271a57612719612053565b5b600061272885828601612161565b925050602061273985828601612161565b9150509250929050565b7f4e487b7100000000000000000000000000000000000000000000000000000000600052602260045260246000fd5b6000600282049050600182168061278a57607f821691505b60208210810361279d5761279c612743565b5b50919050565b7f4552433732313a20617070726f76616c20746f2063757272656e74206f776e6560008201527f7200000000000000000000000000000000000000000000000000000000000000602082015250565b60006127ff602183612205565b915061280a826127a3565b604082019050919050565b6000602082019050818103600083015261282e816127f2565b9050919050565b7f4552433732313a20617070726f76652063616c6c6572206973206e6f7420746f60008201527f6b656e206f776e6572206f7220617070726f76656420666f7220616c6c000000602082015250565b6000612891603d83612205565b915061289c82612835565b604082019050919050565b600060208201905081810360008301526128c081612884565b9050919050565b7f4552433732313a2063616c6c6572206973206e6f7420746f6b656e206f776e6560008201527f72206f7220617070726f76656400000000000000000000000000000000000000602082015250565b6000612923602d83612205565b915061292e826128c7565b604082019050919050565b6000602082019050818103600083015261295281612916565b9050919050565b7f4e487b7100000000000000000000000000000000000000000000000000000000600052601160045260246000fd5b6000612993826122ac565b915061299e836122ac565b92508282026129ac816122ac565b915082820484148315176129c3576129c2612959565b5b5092915050565b7f4e487b7100000000000000000000000000000000000000000000000000000000600052601260045260246000fd5b6000612a04826122ac565b9150612a0f836122ac565b925082612a1f57612a1e6129ca565b5b828204905092915050565b7f4552433732313a20696e76616c696420746f6b656e2049440000000000000000600082015250565b6000612a60601883612205565b9150612a6b82612a2a565b602082019050919050565b60006020820190508181036000830152612a8f81612a53565b9050919050565b7f4552433732313a2061646472657373207a65726f206973206e6f74206120766160008201527f6c6964206f776e65720000000000000000000000000000000000000000000000602082015250565b6000612af2602983612205565b9150612afd82612a96565b604082019050919050565b60006020820190508181036000830152612b2181612ae5565b9050919050565b600081905092915050565b6000612b3e826121fa565b612b488185612b28565b9350612b58818560208601612216565b80840191505092915050565b6000612b708285612b33565b9150612b7c8284612b33565b91508190509392505050565b7f4f776e61626c653a206e6577206f776e657220697320746865207a65726f206160008201527f6464726573730000000000000000000000000000000000000000000000000000602082015250565b6000612be4602683612205565b9150612bef82612b88565b604082019050919050565b60006020820190508181036000830152612c1381612bd7565b9050919050565b7f455243323938313a20726f79616c7479206665652077696c6c2065786365656460008201527f2073616c65507269636500000000000000000000000000000000000000000000602082015250565b6000612c76602a83612205565b9150612c8182612c1a565b604082019050919050565b60006020820190508181036000830152612ca581612c69565b9050919050565b7f455243323938313a20696e76616c696420726563656976657200000000000000600082015250565b6000612ce2601983612205565b9150612ced82612cac565b602082019050919050565b60006020820190508181036000830152612d1181612cd5565b9050919050565b7f4552433732313a207472616e736665722066726f6d20696e636f72726563742060008201527f6f776e6572000000000000000000000000000000000000000000000000000000602082015250565b6000612d74602583612205565b9150612d7f82612d18565b604082019050919050565b60006020820190508181036000830152612da381612d67565b9050919050565b7f4552433732313a207472616e7366657220746f20746865207a65726f2061646460008201527f7265737300000000000000000000000000000000000000000000000000000000602082015250565b6000612e06602483612205565b9150612e1182612daa565b604082019050919050565b60006020820190508181036000830152612e3581612df9565b9050919050565b7f4f776e61626c653a2063616c6c6572206973206e6f7420746865206f776e6572600082015250565b6000612e72602083612205565b9150612e7d82612e3c565b602082019050919050565b60006020820190508181036000830152612ea181612e65565b9050919050565b7f455243323938313a20496e76616c696420706172616d65746572730000000000600082015250565b6000612ede601b83612205565b9150612ee982612ea8565b602082019050919050565b60006020820190508181036000830152612f0d81612ed1565b9050919050565b7f4552433732313a20617070726f766520746f2063616c6c657200000000000000600082015250565b6000612f4a601983612205565b9150612f5582612f14565b602082019050919050565b60006020820190508181036000830152612f7981612f3d565b9050919050565b7f4552433732313a207472616e7366657220746f206e6f6e20455243373231526560008201527f63656976657220696d706c656d656e7465720000000000000000000000000000602082015250565b6000612fdc603283612205565b9150612fe782612f80565b604082019050919050565b6000602082019050818103600083015261300b81612fcf565b9050919050565b600081519050919050565b600082825260208201905092915050565b600061303982613012565b613043818561301d565b9350613053818560208601612216565b61305c81612240565b840191505092915050565b600060808201905061307c600083018761230f565b613089602083018661230f565b613096604083018561240c565b81810360608301526130a8818461302e565b905095945050505050565b6000815190506130c281612089565b92915050565b6000602082840312156130de576130dd612053565b5b60006130ec848285016130b3565b91505092915050565b7f4552433732313a206d696e7420746f20746865207a65726f2061646472657373600082015250565b600061312b602083612205565b9150613136826130f5565b602082019050919050565b6000602082019050818103600083015261315a8161311e565b9050919050565b7f4552433732313a20746f6b656e20616c7265616479206d696e74656400000000600082015250565b6000613197601c83612205565b91506131a282613161565b602082019050919050565b600060208201905081810360008301526131c68161318a565b905091905056fea2646970667358221220971afa20f1cd09e1bd7e90cd109588863c1f2a8e32060b812e07fe44e21c3adb64736f6c63430008120033",
  "linkReferences": {},
  "deployedLinkReferences": {}
}